:100000008B01F03086000030850083168101811756
:1000100003018500030186008312D2209F0159202D
:10002000AB209100F22011081920FF30A420A42059
:1000300010280F3982074B284B282B284B2854288F
:100040004B284B284B2857284B284B284B284B280C
:100050004B284B284B28203084000614B8304C2005
:10006000061058304C2004309100083090000008F1
:100070008F0006140C304C200A300F182030061068
:100080004C208F0C900B3928840A910B35280614CC
:100090000C304C20061008008D0010308E008E0BA6
:1000A0004F288D0B4D2808009F039F0359289F0A56
:1000B0009F0A1F0EC02000211F08C02000212030F1
:1000C0000021203084001F086F20B820840AB82047
:1000D000840A1F0A6F20B820840AB8200800800014
:1000E000850105140515A120A1200510A1200630C9
:1000F00090000510801A0514800DA120900B79281E
:1001000005108514831605148312840A08309000A4
:10011000800D00100518001485108514900B882898
:10012000840308309000800D00100518001485101D
:100130008514900B93288501831600308500831267
:1001400008008514851008008D008E018E0BA628EE
:100150008D0BA52808008316F03086008312060E4A
:100160008C0083160030860083120C090F390800BA
:10017000000EC02000210008C020002120300029EE
:100180000F39820730343134323433343434353437
:100190003634373438343934613462346334643457
:1001A00065346634F03086001030A42030300721EA
:1001B0001030A420303007211030A4202030072137
:1001C0001030A4202030F7200F30F7200130F72026
:1001D0000630F72008000008840A0021800A800BFE
:1001E000EB2808000230F7280130F728E7388C00A8
:1001F0000F210C08F73907210C0EF73907210800E9
:100200008C000F210C08083807210C0E0838FB3928
:10021000FD39860002388600FD3986000800F0307E
:100220008604831686048312F43086000238860022
:10023000861B1829FD39860083160030860083123C
:020240000800B4
:00000001FF
