:100000008B01F0308600F330850083168101811763
:1000100003018500030186008312AE209F0120307A
:100020008400023080002030840A8000A030840ADE
:1000300080000830840A80000030840A8000A830E4
:10004000840A80007A2087209100CE2011082C207D
:10005000FF308020802023280F3982075E285E2809
:100060003E285E2867285E285E285E2871285E2864
:100070005E285E285E285E285E285E282030840088
:10008000061450305F20061022305F2006309100A9
:100090000830900000088F00061404305F200C30F8
:1000A0000F181C3006105F208F0C900B4C28840A10
:1000B000910B4828061404305F20061008008D00BC
:1000C00010308E008E0B62288D0B60280800A40370
:1000D000083024070F39A500A0302407F039A50403
:1000E0007A28A40A083024070F39A500A030240775
:1000F000F039A504243084009420840A9420080058
:100100008D008E018E0B82288D0B812808008316AE
:10011000F03086008312060E8C00831600308600B5
:1001200083120C090F390800000E9C20DC20000807
:100130009C20DC202030DC200F3982073034313421
:100140003234333434343534363437343834393463
:10015000613462346334643465346634F03086006C
:10016000103080203030E320103080203030E32009
:10017000103080202030E320103080202030D32029
:100180000F30D3200130D3200630D32008000008E0
:10019000840ADC20800A800BC72808000230D3289C
:1001A0000130D328E7388C00EB200C08F739E32026
:1001B0000C0EF739E32008008C00EB200C080838FF
:1001C000E3200C0E0838FB39FD3986000238860022
:1001D000FD3986000800F0308604831686048312F9
:1001E000F430860002388600861BF428FD3986002C
:0A01F0008316003086008312080019
:00000001FF
